{
	"data": {
		"bytecode": {
			"linkReferences": {},
			"object": "6080604052348015600e575f80fd5b506101408061001c5f395ff3fe608060405234801561000f575f80fd5b5060043610610029575f3560e01c8063a92100cb1461002d575b5f80fd5b610035610037565b005b5f5b600a8160ff16101561006b5760038160ff16031561005e5760058160ff16031561006b575b8080600101915050610039565b505f5b600a81101561008a578080610082906100c3565b91505061006e565b50565b7f4e487b71000000000000000000000000000000000000000000000000000000005f52601160045260245ffd5b5f819050919050565b5f6100cd826100ba565b91507fffffffffffffffffffffffffffffffffffffffffffffffffffffffffffffffff82036100ff576100fe61008d565b5b60018201905091905056fea264697066735822122098f21af68b49308b7d108ca74ee7bdc61706e230044c9efc0e7d06e3050a2c1664736f6c634300081a0033",
			"opcodes": "PUSH1 0x80 PUSH1 0x40 MSTORE CALLVALUE DUP1 ISZERO PUSH1 0xE JUMPI PUSH0 DUP1 REVERT JUMPDEST POP PUSH2 0x140 DUP1 PUSH2 0x1C PUSH0 CODECOPY PUSH0 RETURN INVALID PUSH1 0x80 PUSH1 0x40 MSTORE CALLVALUE DUP1 ISZERO PUSH2 0xF JUMPI PUSH0 DUP1 REVERT JUMPDEST POP PUSH1 0x4 CALLDATASIZE LT PUSH2 0x29 JUMPI PUSH0 CALLDATALOAD PUSH1 0xE0 SHR DUP1 PUSH4 0xA92100CB EQ PUSH2 0x2D JUMPI JUMPDEST PUSH0 DUP1 REVERT JUMPDEST PUSH2 0x35 PUSH2 0x37 JUMP JUMPDEST STOP JUMPDEST PUSH0 JUMPDEST PUSH1 0xA DUP2 PUSH1 0xFF AND LT ISZERO PUSH2 0x6B JUMPI PUSH1 0x3 DUP2 PUSH1 0xFF AND SUB ISZERO PUSH2 0x5E JUMPI PUSH1 0x5 DUP2 PUSH1 0xFF AND SUB ISZERO PUSH2 0x6B JUMPI JUMPDEST DUP1 DUP1 PUSH1 0x1 ADD SWAP2 POP POP PUSH2 0x39 JUMP JUMPDEST POP PUSH0 JUMPDEST PUSH1 0xA DUP2 LT ISZERO PUSH2 0x8A JUMPI DUP1 DUP1 PUSH2 0x82 SWAP1 PUSH2 0xC3 JUMP JUMPDEST SWAP2 POP POP PUSH2 0x6E JUMP JUMPDEST POP JUMP JUMPDEST PUSH32 0x4E487B7100000000000000000000000000000000000000000000000000000000 PUSH0 MSTORE PUSH1 0x11 PUSH1 0x4 MSTORE PUSH1 0x24 PUSH0 REVERT JUMPDEST PUSH0 DUP2 SWAP1 POP SWAP2 SWAP1 POP JUMP JUMPDEST PUSH0 PUSH2 0xCD DUP3 PUSH2 0xBA JUMP JUMPDEST SWAP2 POP PUSH32 0xFFFFFFFFFFFFFFFFFFFFFFFFFFFFFFFFFFFFFFFFFFFFFFFFFFFFFFFFFFFFFFFF DUP3 SUB PUSH2 0xFF JUMPI PUSH2 0xFE PUSH2 0x8D JUMP JUMPDEST JUMPDEST PUSH1 0x1 DUP3 ADD SWAP1 POP SWAP2 SWAP1 POP JUMP INVALID LOG2 PUSH5 0x6970667358 0x22 SLT KECCAK256 SWAP9 CALLCODE BYTE 0xF6 DUP12 BLOBHASH ADDRESS DUP12 PUSH30 0x108CA74EE7BDC61706E230044C9EFC0E7D06E3050A2C1664736F6C634300 ADDMOD BYTE STOP CALLER "
		},
		"gasEstimates": {
			"creation": {
				"codeDepositCost": "64000",
				"executionCost": "109",
				"totalCost": "64109"
			},
			"external": {
				"loop()": "infinite"
			}
		},
		"methodIdentifiers": {
			"loop()": "a92100cb"
		}
	},
	"abi": [
		{
			"inputs": [],
			"name": "loop",
			"outputs": [],
			"stateMutability": "pure",
			"type": "function"
		}
	]
}